:1000000072C000009EC000009DC000009AC00000A9
:1000100098C0000096C0000094C0000092C000008C
:1000200090C000008EC000008CC000008AC000009C
:1000300088C0000086C0000084C0000082C00000AC
:1000400080C000007EC000007CC000007AC00000BC
:1000500078C0000076C0000074C0000072C00000CC
:1000600070C000006EC000006CC000006AC00000DC
:1000700068C0000066C0000064C0000062C00000EC
:1000800060C000005EC000005CC000005AC00000FC
:1000900058C0000056C0000054C0000052C000000C
:1000A00050C000004EC000004CC000004AC000001C
:1000B00048C0000046C0000044C0000042C000002C
:1000C00040C000003EC000003CC000003AC000003C
:1000D00038C0000036C0000034C0000032C000004C
:1000E00030C000006D0111241FBECFEFD1E2DEBF92
:1000F000CDBF00E00CBF12E0A0E0B2E0EEE1F3E023
:1001000000E00BBF02C007900D92A630B107D9F7EF
:1001100022E0A6E0B2E001C01D92AE30B207E1F7E6
:1001200010E0C3E7D0E000E005C021970109802F6F
:10013000FE01EBD0C237D10780E00807B1F7B2D09B
:10014000ECC05ECF1F920F920FB60F9211240BB628
:100150000F922F933F934F935F936F937F938F9360
:100160009F93AF93BF93EF93FF9380910802909179
:100170000902892B09F47EC080910A0290910B023A
:10018000029708F05AC080910C0290910D020497DA
:10019000F0F420910C0230910D0283E090E0821B7C
:1001A000930B61E070E002C0660F771F8A95E2F75B
:1001B0006E70772786E092E09DD080910C0290913E
:1001C0000D02019690930D0280930C0253C0809112
:1001D0000C0290910D020A9710F540910C0250917B
:1001E0000D02809100029091010229E030E0241B71
:1001F000350B61E070E002C0660F771F2A95E2F7C9
:100200006823792386E092E075D080910C0290916A
:100210000D02019690930D0280930C022BC060E0BA
:1002200070E086E092E066D080910C0290910D0221
:10023000019690930D0280930C0280910C02909194
:100240000D024097B9F480910A0290910B02019639
:1002500090930B0280930A0210920D0210920C02EE
:1002600080910A0290910B02029721F410920902E8
:1002700010920802FF91EF91BF91AF919F918F91E2
:100280007F916F915F914F913F912F910F900BBE96
:100290000F900FBE0F901F90189584E08093690017
:1002A000E99A0895FADF78942AEA36EE86E991E031
:1002B0002150304080409040D9F7000081E090E02C
:1002C00090930902809308028091040290910502A4
:1002D0008091020290910302F7CF86E092E001C084
:1002E000089529E230E0FC01318320838FEF84B947
:1002F0001AB80895672B41F02F9A8FE99FE0019774
:10030000F1F700C000002F980895EE0FFF1F881F1F
:0E0310008BBF0790F691E02D1994F894FFCF63
:06031E0019001500150096
:00000001FF
